{
  "contractName": "Hello2",
  "abi": [
    {
      "inputs": [
        {
          "internalType": "address",
          "name": "ReferedContract",
          "type": "address"
        }
      ],
      "payable": false,
      "stateMutability": "nonpayable",
      "type": "constructor"
    },
    {
      "constant": true,
      "inputs": [],
      "name": "OtherContract",
      "outputs": [
        {
          "internalType": "address",
          "name": "",
          "type": "address"
        }
      ],
      "payable": false,
      "stateMutability": "view",
      "type": "function"
    },
    {
      "constant": true,
      "inputs": [],
      "name": "Message",
      "outputs": [
        {
          "internalType": "string",
          "name": "",
          "type": "string"
        }
      ],
      "payable": false,
      "stateMutability": "view",
      "type": "function"
    }
  ],
  "bytecode": "0x608060405234801561001057600080fd5b5060405161035d38038061035d8339818101604052602081101561003357600080fd5b8101908080519060200190929190505050806000806101000a81548173ffffffffffffffffffffffffffffffffffffffff021916908373ffffffffffffffffffffffffffffffffffffffff160217905550506102c9806100946000396000f3fe608060405234801561001057600080fd5b50600436106100365760003560e01c80636769e4e71461003b578063a1fb1de914610085575b600080fd5b610043610108565b604051808273ffffffffffffffffffffffffffffffffffffffff1673ffffffffffffffffffffffffffffffffffffffff16815260200191505060405180910390f35b61008d61012d565b6040518080602001828103825283818151815260200191508051906020019080838360005b838110156100cd5780820151818401526020810190506100b2565b50505050905090810190601f1680156100fa5780820380516001836020036101000a031916815260200191505b509250505060405180910390f35b6000809054906101000a900473ffffffffffffffffffffffffffffffffffffffff1681565b60606000809054906101000a900473ffffffffffffffffffffffffffffffffffffffff1673ffffffffffffffffffffffffffffffffffffffff1663b627cf3b6040518163ffffffff1660e01b815260040160006040518083038186803b15801561019657600080fd5b505afa1580156101aa573d6000803e3d6000fd5b505050506040513d6000823e3d601f19601f8201168201806040525060208110156101d457600080fd5b81019080805160405193929190846401000000008211156101f457600080fd5b8382019150602082018581111561020a57600080fd5b825186600182028301116401000000008211171561022757600080fd5b8083526020830192505050908051906020019080838360005b8381101561025b578082015181840152602081019050610240565b50505050905090810190601f1680156102885780820380516001836020036101000a031916815260200191505b5060405250505090509056fea265627a7a72315820e62428c875f01c147e73e4732cd933398f8533e502dcb9bbc41b7ff70cf32c4f64736f6c634300050c0032",
  "source": "pragma solidity ^0.5.11;\nimport \"./HelloWorld.sol\";\n\ncontract Hello2 {\n  address public OtherContract;\n  // address of \"HelloWorld.sol\" instance has to be supplied\n  constructor (address ReferedContract) public {\n      OtherContract = ReferedContract;\n  }\n  function Message() public view returns (string memory) {\n    return HelloWorld(OtherContract).welcome();\n  }\n}",
  "sourcePath": "/Users/giannibhoendie/Documents/GitHub/BC1_Gianni/Day_07_Mon_9_12_2019/contracts/helloworld2.sol",
  "compiler": {
    "name": "solc",
    "version": "0.5.12+commit.7709ece9.Emscripten.clang"
  },
  "schemaVersion": "3.0.19",
  "updatedAt": "2019-12-17T22:56:31.244Z",
  "networkType": "ethereum",
  "devdoc": {
    "methods": {}
  },
  "userdoc": {
    "methods": {}
  }
}